{
  "_format": "hh-sol-artifact-1",
  "contractName": "voting_system",
  "sourceName": "contracts/Lock.sol",
  "abi": [
    {
      "inputs": [
        {
          "internalType": "address",
          "name": "election_commission",
          "type": "address"
        }
      ],
      "stateMutability": "nonpayable",
      "type": "constructor"
    },
    {
      "inputs": [
        {
          "internalType": "string",
          "name": "NAME_CONTESTENT",
          "type": "string"
        }
      ],
      "name": "CANDIDATE_STATUS",
      "outputs": [
        {
          "internalType": "uint256",
          "name": "",
          "type": "uint256"
        }
      ],
      "stateMutability": "view",
      "type": "function"
    },
    {
      "inputs": [
        {
          "internalType": "uint256",
          "name": "",
          "type": "uint256"
        }
      ],
      "name": "CONTESTENT_NAME",
      "outputs": [
        {
          "internalType": "string",
          "name": "",
          "type": "string"
        }
      ],
      "stateMutability": "view",
      "type": "function"
    },
    {
      "inputs": [],
      "name": "ELECTION_COMMISSION",
      "outputs": [
        {
          "internalType": "address",
          "name": "",
          "type": "address"
        }
      ],
      "stateMutability": "view",
      "type": "function"
    },
    {
      "inputs": [],
      "name": "Percectage_Abstention",
      "outputs": [
        {
          "internalType": "uint256",
          "name": "",
          "type": "uint256"
        }
      ],
      "stateMutability": "view",
      "type": "function"
    },
    {
      "inputs": [],
      "name": "TOTAL_VOTES",
      "outputs": [
        {
          "internalType": "uint256",
          "name": "",
          "type": "uint256"
        }
      ],
      "stateMutability": "view",
      "type": "function"
    },
    {
      "inputs": [
        {
          "internalType": "string",
          "name": "nameContestent",
          "type": "string"
        }
      ],
      "name": "VOTE_CANDIDATE",
      "outputs": [],
      "stateMutability": "nonpayable",
      "type": "function"
    },
    {
      "inputs": [],
      "name": "callTOTAL_VOTES",
      "outputs": [
        {
          "internalType": "uint256",
          "name": "",
          "type": "uint256"
        }
      ],
      "stateMutability": "view",
      "type": "function"
    },
    {
      "inputs": [],
      "name": "current_election",
      "outputs": [
        {
          "internalType": "uint256",
          "name": "",
          "type": "uint256"
        }
      ],
      "stateMutability": "view",
      "type": "function"
    },
    {
      "inputs": [],
      "name": "deactivateContract",
      "outputs": [],
      "stateMutability": "nonpayable",
      "type": "function"
    },
    {
      "inputs": [],
      "name": "getContestants",
      "outputs": [
        {
          "internalType": "string[]",
          "name": "",
          "type": "string[]"
        }
      ],
      "stateMutability": "view",
      "type": "function"
    },
    {
      "inputs": [],
      "name": "is_active",
      "outputs": [
        {
          "internalType": "bool",
          "name": "",
          "type": "bool"
        }
      ],
      "stateMutability": "view",
      "type": "function"
    },
    {
      "inputs": [],
      "name": "reactivateContract",
      "outputs": [],
      "stateMutability": "nonpayable",
      "type": "function"
    }
  ],
  "bytecode": "0x60806040526107e96002556001600360006101000a81548160ff02191690831515021790555060405180610140016040528073a305d2a348cd8fe0ed15c9385f85a42ee4cb39a973ffffffffffffffffffffffffffffffffffffffff1673ffffffffffffffffffffffffffffffffffffffff168152602001737fbc450ad0ec2e8753eefecfe8e1bbd8a63c4c5473ffffffffffffffffffffffffffffffffffffffff1673ffffffffffffffffffffffffffffffffffffffff16815260200173617f2e2fd72fd9d5503197092ac168c91465e7f273ffffffffffffffffffffffffffffffffffffffff1673ffffffffffffffffffffffffffffffffffffffff16815260200173583031d1113ad414f02576bd6afabfb30214022573ffffffffffffffffffffffffffffffffffffffff1673ffffffffffffffffffffffffffffffffffffffff1681526020017378731d3ca6b7e34ac0f824c42a7cc18a495cabab73ffffffffffffffffffffffffffffffffffffffff1673ffffffffffffffffffffffffffffffffffffffff16815260200173ca35b7d915458ef540ade6068dfe2f44e8fa733c73ffffffffffffffffffffffffffffffffffffffff1673ffffffffffffffffffffffffffffffffffffffff16815260200173789def0123456789abc123456789def01234567873ffffffffffffffffffffffffffffffffffffffff1673ffffffffffffffffffffffffffffffffffffffff1681526020017317f6ad8ef982297579c203069c1dbffe4348c37273ffffffffffffffffffffffffffffffffffffffff1673ffffffffffffffffffffffffffffffffffffffff168152602001735b38da6a701c568545dcfcb03fcb875f56beddc473ffffffffffffffffffffffffffffffffffffffff1673ffffffffffffffffffffffffffffffffffffffff16815260200173def6789abc0123456789defabc123456789def0173ffffffffffffffffffffffffffffffffffffffff1673ffffffffffffffffffffffffffffffffffffffff16815250600690600a6102fb92919061055b565b5060405180606001604052806040518060400160405280600481526020017f4a6f686e0000000000000000000000000000000000000000000000000000000081525081526020016040518060400160405280600581526020017f506574657200000000000000000000000000000000000000000000000000000081525081526020016040518060400160405280600481526020017f4d696b650000000000000000000000000000000000000000000000000000000081525081525060079060036103c69291906105e5565b503480156103d357600080fd5b50604051611aa6380380611aa683398181016040528101906103f59190610722565b806000806101000a81548173ffffffffffffffffffffffffffffffffffffffff021916908373ffffffffffffffffffffffffffffffffffffffff16021790555061044361045760201b60201c565b6104516104b860201b60201c565b50610b45565b60005b6007805490508110156104b557600160046007838154811061047f5761047e61074f565b5b906000526020600020016040516104969190610881565b908152602001604051809103902081905550808060010191505061045a565b50565b60005b60068054905081101561055857600160056000600684815481106104e2576104e161074f565b5b9060005260206000200160009054906101000a900473ffffffffffffffffffffffffffffffffffffffff1673ffffffffffffffffffffffffffffffffffffffff1673ffffffffffffffffffffffffffffffffffffffff1681526020019081526020016000208190555080806001019150506104bb565b50565b8280548282559060005260206000209081019282156105d4579160200282015b828111156105d35782518260006101000a81548173ffffffffffffffffffffffffffffffffffffffff021916908373ffffffffffffffffffffffffffffffffffffffff1602179055509160200191906001019061057b565b5b5090506105e1919061063e565b5090565b82805482825590600052602060002090810192821561062d579160200282015b8281111561062c57825182908161061c9190610a73565b5091602001919060010190610605565b5b50905061063a919061065b565b5090565b5b8082111561065757600081600090555060010161063f565b5090565b5b8082111561067b5760008181610672919061067f565b5060010161065c565b5090565b50805461068b906107ad565b6000825580601f1061069d57506106bc565b601f0160209004906000526020600020908101906106bb919061063e565b5b50565b600080fd5b600073ffffffffffffffffffffffffffffffffffffffff82169050919050565b60006106ef826106c4565b9050919050565b6106ff816106e4565b811461070a57600080fd5b50565b60008151905061071c816106f6565b92915050565b600060208284031215610738576107376106bf565b5b60006107468482850161070d565b91505092915050565b7f4e487b7100000000000000000000000000000000000000000000000000000000600052603260045260246000fd5b7f4e487b7100000000000000000000000000000000000000000000000000000000600052602260045260246000fd5b600060028204905060018216806107c557607f821691505b6020821081036107d8576107d761077e565b5b50919050565b600081905092915050565b60008190508160005260206000209050919050565b6000815461080b816107ad565b61081581866107de565b94506001821660008114610830576001811461084557610878565b60ff1983168652811515820286019350610878565b61084e856107e9565b60005b8381101561087057815481890152600182019150602081019050610851565b838801955050505b50505092915050565b600061088d82846107fe565b915081905092915050565b600081519050919050565b7f4e487b7100000000000000000000000000000000000000000000000000000000600052604160045260246000fd5b60006020601f8301049050919050565b600082821b905092915050565b60006008830261091f7fffffffffffffffffffffffffffffffffffffffffffffffffffffffffffffffff826108e2565b61092986836108e2565b95508019841693508086168417925050509392505050565b6000819050919050565b6000819050919050565b600061097061096b61096684610941565b61094b565b610941565b9050919050565b6000819050919050565b61098a83610955565b61099e61099682610977565b8484546108ef565b825550505050565b600090565b6109b36109a6565b6109be818484610981565b505050565b5b818110156109e2576109d76000826109ab565b6001810190506109c4565b5050565b601f821115610a27576109f8816107e9565b610a01846108d2565b81016020851015610a10578190505b610a24610a1c856108d2565b8301826109c3565b50505b505050565b600082821c905092915050565b6000610a4a60001984600802610a2c565b1980831691505092915050565b6000610a638383610a39565b9150826002028217905092915050565b610a7c82610898565b67ffffffffffffffff811115610a9557610a946108a3565b5b610a9f82546107ad565b610aaa8282856109e6565b600060209050601f831160018114610add5760008415610acb578287015190505b610ad58582610a57565b865550610b3d565b601f198416610aeb866107e9565b60005b82811015610b1357848901518255600182019150602085019450602081019050610aee565b86831015610b305784890151610b2c601f891682610a39565b8355505b6001600288020188555050505b505050505050565b610f5280610b546000396000f3fe608060405234801561001057600080fd5b50600436106100b45760003560e01c8063b8d134b811610071578063b8d134b814610169578063bb7d926914610187578063bca353be146101a5578063c10196fa146101af578063da6f106e146101cd578063fa08e113146101eb576100b4565b80631a8012e4146100b9578063305ed764146100d75780634d81d5f9146101075780638a6e983614610125578063a197c1cd1461012f578063ab5158831461014b575b600080fd5b6100c161021b565b6040516100ce9190610742565b60405180910390f35b6100f160048036038101906100ec91906108b7565b61022e565b6040516100fe9190610919565b60405180910390f35b61010f610262565b60405161011c9190610975565b60405180910390f35b61012d610286565b005b610149600480360381019061014491906108b7565b610331565b005b6101536104b6565b6040516101609190610919565b60405180910390f35b6101716104bc565b60405161017e9190610919565b60405180910390f35b61018f6104c2565b60405161019c9190610919565b60405180910390f35b6101ad6104cc565b005b6101b7610577565b6040516101c49190610ad1565b60405180910390f35b6101d5610650565b6040516101e29190610919565b60405180910390f35b61020560048036038101906102009190610b1f565b61067b565b6040516102129190610b96565b60405180910390f35b600360009054906101000a900460ff1681565b600060016004836040516102429190610bf4565b90815260200160405180910390205461025b9190610c3a565b9050919050565b60008054906101000a900473ffffffffffffffffffffffffffffffffffffffff1681565b60008054906101000a900473ffffffffffffffffffffffffffffffffffffffff1673ffffffffffffffffffffffffffffffffffffffff163373ffffffffffffffffffffffffffffffffffffffff1614610314576040517f08c379a000000000000000000000000000000000000000000000000000000000815260040161030b90610ce0565b60405180910390fd5b6001600360006101000a81548160ff021916908315150217905550565b6001600560003373ffffffffffffffffffffffffffffffffffffffff1673ffffffffffffffffffffffffffffffffffffffff16815260200190815260200160002054146103b3576040517f08c379a00000000000000000000000000000000000000000000000000000000081526004016103aa90610d72565b60405180910390fd5b60006004826040516103c59190610bf4565b90815260200160405180910390205411806103e1575060008151115b610420576040517f08c379a000000000000000000000000000000000000000000000000000000000815260040161041790610dde565b60405180910390fd5b6000600560003373ffffffffffffffffffffffffffffffffffffffff1673ffffffffffffffffffffffffffffffffffffffff168152602001908152602001600020819055506001600081548092919061047890610dfe565b9190505550600160048260405161048f9190610bf4565b908152602001604051809103902060008282546104ac9190610e46565b9250508190555050565b60015481565b60025481565b6000600154905090565b60008054906101000a900473ffffffffffffffffffffffffffffffffffffffff1673ffffffffffffffffffffffffffffffffffffffff163373ffffffffffffffffffffffffffffffffffffffff161461055a576040517f08c379a000000000000000000000000000000000000000000000000000000000815260040161055190610ce0565b60405180910390fd5b6000600360006101000a81548160ff021916908315150217905550565b60606007805480602002602001604051908101604052809291908181526020016000905b828210156106475783829060005260206000200180546105ba90610ea9565b80601f01602080910402602001604051908101604052809291908181526020018280546105e690610ea9565b80156106335780601f1061060857610100808354040283529160200191610633565b820191906000526020600020905b81548152906001019060200180831161061657829003601f168201915b50505050508152602001906001019061059b565b50505050905090565b6000600a61065c6104c2565b60068054905061066c9190610c3a565b6106769190610eda565b905090565b6007818154811061068b57600080fd5b9060005260206000200160009150905080546106a690610ea9565b80601f01602080910402602001604051908101604052809291908181526020018280546106d290610ea9565b801561071f5780601f106106f45761010080835404028352916020019161071f565b820191906000526020600020905b81548152906001019060200180831161070257829003601f168201915b505050505081565b60008115159050919050565b61073c81610727565b82525050565b60006020820190506107576000830184610733565b92915050565b6000604051905090565b600080fd5b600080fd5b600080fd5b600080fd5b6000601f19601f8301169050919050565b7f4e487b7100000000000000000000000000000000000000000000000000000000600052604160045260246000fd5b6107c48261077b565b810181811067ffffffffffffffff821117156107e3576107e261078c565b5b80604052505050565b60006107f661075d565b905061080282826107bb565b919050565b600067ffffffffffffffff8211156108225761082161078c565b5b61082b8261077b565b9050602081019050919050565b82818337600083830152505050565b600061085a61085584610807565b6107ec565b90508281526020810184848401111561087657610875610776565b5b610881848285610838565b509392505050565b600082601f83011261089e5761089d610771565b5b81356108ae848260208601610847565b91505092915050565b6000602082840312156108cd576108cc610767565b5b600082013567ffffffffffffffff8111156108eb576108ea61076c565b5b6108f784828501610889565b91505092915050565b6000819050919050565b61091381610900565b82525050565b600060208201905061092e600083018461090a565b92915050565b600073ffffffffffffffffffffffffffffffffffffffff82169050919050565b600061095f82610934565b9050919050565b61096f81610954565b82525050565b600060208201905061098a6000830184610966565b92915050565b600081519050919050565b600082825260208201905092915050565b6000819050602082019050919050565b600081519050919050565b600082825260208201905092915050565b60005b838110156109f65780820151818401526020810190506109db565b60008484015250505050565b6000610a0d826109bc565b610a1781856109c7565b9350610a278185602086016109d8565b610a308161077b565b840191505092915050565b6000610a478383610a02565b905092915050565b6000602082019050919050565b6000610a6782610990565b610a71818561099b565b935083602082028501610a83856109ac565b8060005b85811015610abf5784840389528151610aa08582610a3b565b9450610aab83610a4f565b925060208a01995050600181019050610a87565b50829750879550505050505092915050565b60006020820190508181036000830152610aeb8184610a5c565b905092915050565b610afc81610900565b8114610b0757600080fd5b50565b600081359050610b1981610af3565b92915050565b600060208284031215610b3557610b34610767565b5b6000610b4384828501610b0a565b91505092915050565b600082825260208201905092915050565b6000610b68826109bc565b610b728185610b4c565b9350610b828185602086016109d8565b610b8b8161077b565b840191505092915050565b60006020820190508181036000830152610bb08184610b5d565b905092915050565b600081905092915050565b6000610bce826109bc565b610bd88185610bb8565b9350610be88185602086016109d8565b80840191505092915050565b6000610c008284610bc3565b915081905092915050565b7f4e487b7100000000000000000000000000000000000000000000000000000000600052601160045260246000fd5b6000610c4582610900565b9150610c5083610900565b9250828203905081811115610c6857610c67610c0b565b5b92915050565b7f4f6e6c7920746865206f776e65722063616e20706572666f726d20746869732060008201527f616374696f6e2e00000000000000000000000000000000000000000000000000602082015250565b6000610cca602783610b4c565b9150610cd582610c6e565b604082019050919050565b60006020820190508181036000830152610cf981610cbd565b9050919050565b7f596f7520617265206e6f7420656c696769626c6520666f7220766f74696e672060008201527f6f72206861766520616c726561647920766f7465642e00000000000000000000602082015250565b6000610d5c603683610b4c565b9150610d6782610d00565b604082019050919050565b60006020820190508181036000830152610d8b81610d4f565b9050919050565b7f496e76616c69642063616e6469646174652e0000000000000000000000000000600082015250565b6000610dc8601283610b4c565b9150610dd382610d92565b602082019050919050565b60006020820190508181036000830152610df781610dbb565b9050919050565b6000610e0982610900565b91507fffffffffffffffffffffffffffffffffffffffffffffffffffffffffffffffff8203610e3b57610e3a610c0b565b5b600182019050919050565b6000610e5182610900565b9150610e5c83610900565b9250828201905080821115610e7457610e73610c0b565b5b92915050565b7f4e487b7100000000000000000000000000000000000000000000000000000000600052602260045260246000fd5b60006002820490506001821680610ec157607f821691505b602082108103610ed457610ed3610e7a565b5b50919050565b6000610ee582610900565b9150610ef083610900565b9250828202610efe81610900565b91508282048414831517610f1557610f14610c0b565b5b509291505056fea26469706673582212200d04e09999f7c720ece94c9f0d0a2a6609f2239bca9dab0a2702845b1445721864736f6c634300081c0033",
  "linkReferences": {},
  "deployedLinkReferences": {}
}